:020000040000FA
:060000000A128A11122809
:10000800FE00030EF2000408F3000A08F40083124D
:1000180003137F08F5000A128A111D280A128A1193
:100028001528F601F701F801F90183010A128A116E
:10003800C4280B1E2028212850288B1C242825285A
:1000480050280130F8070318F90A0030F907790831
:10005800803AFF0080307F02031D34280A3078027E
:10006800031C3728382840280130F6070318F70AF8
:100078000030F707F801F9017708803AFF0080306F
:100088007F02031D49280A307602031C4C284D289C
:100098004F28F601F7018B108B1E532854287C2813
:1000A8000B1D572858287C2883120313071C5D282A
:1000B8005E286D28071087147708F1007608F0008D
:1000C8000A128A1189200A128A11831203138800DE
:1000D8007B28071487107908F1007808F0000A12C5
:1000E8008A1189200A128A118312031388000B11BE
:1000F800750883120313FF0074088A0073088400CC
:10010800720E8300FE0E7E0E09009E283F30C32823
:100118000630C3285B30C3284F30C3286630C32855
:100128006D30C3287D30C3280730C3287F30C328EB
:100138006F30C3287108003A0319A3288A28700869
:10014800003A03198A28013A03198C28033A03193B
:100158008E28013A03199028073A03199228013A80
:1001680003199428033A03199628013A0319982881
:100178000F3A03199A28013A03199C288A2808007B
:100188000A128A11F8200A128A1106308312031300
:10019800A0000030A1000A128A11DD200A128A117B
:1001A8000A128A11F1200A128A11D9280A128A1110
:1001B80012288B178B160730831203132005A20011
:1001C80000302105A30083160313010883120313CB
:1001D80022058316031381000800831603130614EF
:0E01E80007108710880108008B170B160800FF
:00000001FF
